{
    "_format": "hh-sol-artifact-1",
    "contractName": "MyNFT",
    "sourceName": "contracts/MyNFT.sol",
    "abi": [
        {
            "inputs": [],
            "stateMutability": "payable",
            "type": "constructor"
        },
        {
            "anonymous": false,
            "inputs": [
                {
                    "indexed": true,
                    "internalType": "address",
                    "name": "owner",
                    "type": "address"
                },
                {
                    "indexed": true,
                    "internalType": "address",
                    "name": "approved",
                    "type": "address"
                },
                {
                    "indexed": true,
                    "internalType": "uint256",
                    "name": "tokenId",
                    "type": "uint256"
                }
            ],
            "name": "Approval",
            "type": "event"
        },
        {
            "anonymous": false,
            "inputs": [
                {
                    "indexed": true,
                    "internalType": "address",
                    "name": "owner",
                    "type": "address"
                },
                {
                    "indexed": true,
                    "internalType": "address",
                    "name": "operator",
                    "type": "address"
                },
                {
                    "indexed": false,
                    "internalType": "bool",
                    "name": "approved",
                    "type": "bool"
                }
            ],
            "name": "ApprovalForAll",
            "type": "event"
        },
        {
            "anonymous": false,
            "inputs": [
                {
                    "indexed": true,
                    "internalType": "address",
                    "name": "previousOwner",
                    "type": "address"
                },
                {
                    "indexed": true,
                    "internalType": "address",
                    "name": "newOwner",
                    "type": "address"
                }
            ],
            "name": "OwnershipTransferred",
            "type": "event"
        },
        {
            "anonymous": false,
            "inputs": [
                {
                    "indexed": true,
                    "internalType": "address",
                    "name": "from",
                    "type": "address"
                },
                {
                    "indexed": true,
                    "internalType": "address",
                    "name": "to",
                    "type": "address"
                },
                {
                    "indexed": true,
                    "internalType": "uint256",
                    "name": "tokenId",
                    "type": "uint256"
                }
            ],
            "name": "Transfer",
            "type": "event"
        },
        {
            "inputs": [
                {
                    "internalType": "address",
                    "name": "to",
                    "type": "address"
                },
                {
                    "internalType": "uint256",
                    "name": "tokenId",
                    "type": "uint256"
                }
            ],
            "name": "approve",
            "outputs": [],
            "stateMutability": "nonpayable",
            "type": "function"
        },
        {
            "inputs": [
                {
                    "internalType": "address",
                    "name": "owner",
                    "type": "address"
                }
            ],
            "name": "balanceOf",
            "outputs": [
                {
                    "internalType": "uint256",
                    "name": "",
                    "type": "uint256"
                }
            ],
            "stateMutability": "view",
            "type": "function"
        },
        {
            "inputs": [
                {
                    "internalType": "uint256",
                    "name": "tokenId",
                    "type": "uint256"
                }
            ],
            "name": "getApproved",
            "outputs": [
                {
                    "internalType": "address",
                    "name": "",
                    "type": "address"
                }
            ],
            "stateMutability": "view",
            "type": "function"
        },
        {
            "inputs": [
                {
                    "internalType": "address",
                    "name": "owner",
                    "type": "address"
                },
                {
                    "internalType": "address",
                    "name": "operator",
                    "type": "address"
                }
            ],
            "name": "isApprovedForAll",
            "outputs": [
                {
                    "internalType": "bool",
                    "name": "",
                    "type": "bool"
                }
            ],
            "stateMutability": "view",
            "type": "function"
        },
        {
            "inputs": [],
            "name": "isPublicMintEnabled",
            "outputs": [
                {
                    "internalType": "bool",
                    "name": "",
                    "type": "bool"
                }
            ],
            "stateMutability": "view",
            "type": "function"
        },
        {
            "inputs": [],
            "name": "maxPerWallets",
            "outputs": [
                {
                    "internalType": "uint256",
                    "name": "",
                    "type": "uint256"
                }
            ],
            "stateMutability": "view",
            "type": "function"
        },
        {
            "inputs": [],
            "name": "maxSupply",
            "outputs": [
                {
                    "internalType": "uint256",
                    "name": "",
                    "type": "uint256"
                }
            ],
            "stateMutability": "view",
            "type": "function"
        },
        {
            "inputs": [
                {
                    "internalType": "uint256",
                    "name": "quantity_",
                    "type": "uint256"
                }
            ],
            "name": "mint",
            "outputs": [],
            "stateMutability": "payable",
            "type": "function"
        },
        {
            "inputs": [],
            "name": "mintPrice",
            "outputs": [
                {
                    "internalType": "uint256",
                    "name": "",
                    "type": "uint256"
                }
            ],
            "stateMutability": "view",
            "type": "function"
        },
        {
            "inputs": [],
            "name": "name",
            "outputs": [
                {
                    "internalType": "string",
                    "name": "",
                    "type": "string"
                }
            ],
            "stateMutability": "view",
            "type": "function"
        },
        {
            "inputs": [],
            "name": "owner",
            "outputs": [
                {
                    "internalType": "address",
                    "name": "",
                    "type": "address"
                }
            ],
            "stateMutability": "view",
            "type": "function"
        },
        {
            "inputs": [
                {
                    "internalType": "uint256",
                    "name": "tokenId",
                    "type": "uint256"
                }
            ],
            "name": "ownerOf",
            "outputs": [
                {
                    "internalType": "address",
                    "name": "",
                    "type": "address"
                }
            ],
            "stateMutability": "view",
            "type": "function"
        },
        {
            "inputs": [],
            "name": "renounceOwnership",
            "outputs": [],
            "stateMutability": "nonpayable",
            "type": "function"
        },
        {
            "inputs": [
                {
                    "internalType": "address",
                    "name": "from",
                    "type": "address"
                },
                {
                    "internalType": "address",
                    "name": "to",
                    "type": "address"
                },
                {
                    "internalType": "uint256",
                    "name": "tokenId",
                    "type": "uint256"
                }
            ],
            "name": "safeTransferFrom",
            "outputs": [],
            "stateMutability": "nonpayable",
            "type": "function"
        },
        {
            "inputs": [
                {
                    "internalType": "address",
                    "name": "from",
                    "type": "address"
                },
                {
                    "internalType": "address",
                    "name": "to",
                    "type": "address"
                },
                {
                    "internalType": "uint256",
                    "name": "tokenId",
                    "type": "uint256"
                },
                {
                    "internalType": "bytes",
                    "name": "_data",
                    "type": "bytes"
                }
            ],
            "name": "safeTransferFrom",
            "outputs": [],
            "stateMutability": "nonpayable",
            "type": "function"
        },
        {
            "inputs": [
                {
                    "internalType": "address",
                    "name": "operator",
                    "type": "address"
                },
                {
                    "internalType": "bool",
                    "name": "approved",
                    "type": "bool"
                }
            ],
            "name": "setApprovalForAll",
            "outputs": [],
            "stateMutability": "nonpayable",
            "type": "function"
        },
        {
            "inputs": [
                {
                    "internalType": "string",
                    "name": "baseTokenUri_",
                    "type": "string"
                }
            ],
            "name": "setBaseTokenUri",
            "outputs": [],
            "stateMutability": "nonpayable",
            "type": "function"
        },
        {
            "inputs": [
                {
                    "internalType": "bool",
                    "name": "isPublicMintEnabled_",
                    "type": "bool"
                }
            ],
            "name": "setIsPublicMintEnabled",
            "outputs": [],
            "stateMutability": "nonpayable",
            "type": "function"
        },
        {
            "inputs": [
                {
                    "internalType": "bytes4",
                    "name": "interfaceId",
                    "type": "bytes4"
                }
            ],
            "name": "supportsInterface",
            "outputs": [
                {
                    "internalType": "bool",
                    "name": "",
                    "type": "bool"
                }
            ],
            "stateMutability": "view",
            "type": "function"
        },
        {
            "inputs": [],
            "name": "symbol",
            "outputs": [
                {
                    "internalType": "string",
                    "name": "",
                    "type": "string"
                }
            ],
            "stateMutability": "view",
            "type": "function"
        },
        {
            "inputs": [
                {
                    "internalType": "uint256",
                    "name": "tokenid_",
                    "type": "uint256"
                }
            ],
            "name": "tokenURI",
            "outputs": [
                {
                    "internalType": "string",
                    "name": "",
                    "type": "string"
                }
            ],
            "stateMutability": "view",
            "type": "function"
        },
        {
            "inputs": [],
            "name": "totalSupply",
            "outputs": [
                {
                    "internalType": "uint256",
                    "name": "",
                    "type": "uint256"
                }
            ],
            "stateMutability": "view",
            "type": "function"
        },
        {
            "inputs": [
                {
                    "internalType": "address",
                    "name": "from",
                    "type": "address"
                },
                {
                    "internalType": "address",
                    "name": "to",
                    "type": "address"
                },
                {
                    "internalType": "uint256",
                    "name": "tokenId",
                    "type": "uint256"
                }
            ],
            "name": "transferFrom",
            "outputs": [],
            "stateMutability": "nonpayable",
            "type": "function"
        },
        {
            "inputs": [
                {
                    "internalType": "address",
                    "name": "newOwner",
                    "type": "address"
                }
            ],
            "name": "transferOwnership",
            "outputs": [],
            "stateMutability": "nonpayable",
            "type": "function"
        },
        {
            "inputs": [
                {
                    "internalType": "address",
                    "name": "",
                    "type": "address"
                }
            ],
            "name": "walletMints",
            "outputs": [
                {
                    "internalType": "uint256",
                    "name": "",
                    "type": "uint256"
                }
            ],
            "stateMutability": "view",
            "type": "function"
        },
        {
            "inputs": [
                {
                    "internalType": "uint256",
                    "name": "quantity_",
                    "type": "uint256"
                }
            ],
            "name": "withdraw",
            "outputs": [],
            "stateMutability": "payable",
            "type": "function"
        },
        {
            "inputs": [],
            "name": "withdrawWallet",
            "outputs": [
                {
                    "internalType": "address payable",
                    "name": "",
                    "type": "address"
                }
            ],
            "stateMutability": "view",
            "type": "function"
        }
    ],
    "bytecode": "0x60806040526040518060400160405280600581526020017f4d594e46540000000000000000000000000000000000000000000000000000008152506040518060400160405280600281526020017f4d4e000000000000000000000000000000000000000000000000000000000000815250816000908051906020019062000088929190620001bf565b508060019080519060200190620000a1929190620001bf565b505050620000c4620000b8620000f160201b60201c565b620000f960201b60201c565b66470de4df82000060078190555060006008819055506103e86009819055506003600a81905550620002d4565b600033905090565b6000600660009054906101000a900473ffffffffffffffffffffffffffffffffffffffff16905081600660006101000a81548173ffffffffffffffffffffffffffffffffffffffff021916908373ffffffffffffffffffffffffffffffffffffffff1602179055508173ffffffffffffffffffffffffffffffffffffffff168173ffffffffffffffffffffffffffffffffffffffff167f8be0079c531659141344cd1fd0a4f28419497f9722a3daafe3b4186f6b6457e060405160405180910390a35050565b828054620001cd906200026f565b90600052602060002090601f016020900481019282620001f157600085556200023d565b82601f106200020c57805160ff19168380011785556200023d565b828001600101855582156200023d579182015b828111156200023c5782518255916020019190600101906200021f565b5b5090506200024c919062000250565b5090565b5b808211156200026b57600081600090555060010162000251565b5090565b600060028204905060018216806200028857607f821691505b602082108114156200029f576200029e620002a5565b5b50919050565b7f4e487b7100000000000000000000000000000000000000000000000000000000600052602260045260246000fd5b61371d80620002e46000396000f3fe60806040526004361061019c5760003560e01c806370a08231116100ec578063a22cb4651161008a578063d5abeb0111610064578063d5abeb0114610598578063e985e9c5146105c3578063f0293fd314610600578063f2fde38b1461063d5761019c565b8063a22cb46514610509578063b88d4fde14610532578063c87b56dd1461055b5761019c565b80638da5cb5b116100c65780638da5cb5b1461046e57806395652cfa1461049957806395d89b41146104c2578063a0712d68146104ed5761019c565b806370a08231146103ef578063715018a61461042c57806385d178f4146104435761019c565b80632373ac22116101595780632e1a7d4d116101335780632e1a7d4d1461034257806342842e0e1461035e5780636352211e146103875780636817c76c146103c45761019c565b80632373ac22146102c557806323b872dd146102ee57806328b6fc80146103175761019c565b80630116bc2d146101a157806301ffc9a7146101cc57806306fdde0314610209578063081812fc14610234578063095ea7b31461027157806318160ddd1461029a575b600080fd5b3480156101ad57600080fd5b506101b6610666565b6040516101c39190612a28565b60405180910390f35b3480156101d857600080fd5b506101f360048036038101906101ee919061241f565b610679565b6040516102009190612a28565b60405180910390f35b34801561021557600080fd5b5061021e61075b565b60405161022b9190612a43565b60405180910390f35b34801561024057600080fd5b5061025b600480360381019061025691906124b6565b6107ed565b60405161026891906129a6565b60405180910390f35b34801561027d57600080fd5b50610298600480360381019061029391906123ba565b610872565b005b3480156102a657600080fd5b506102af61098a565b6040516102bc9190612d05565b60405180910390f35b3480156102d157600080fd5b506102ec60048036038101906102e791906123f6565b610990565b005b3480156102fa57600080fd5b50610315600480360381019061031091906122b4565b610a29565b005b34801561032357600080fd5b5061032c610a89565b6040516103399190612d05565b60405180910390f35b61035c600480360381019061035791906124b6565b610a8f565b005b34801561036a57600080fd5b50610385600480360381019061038091906122b4565b610b61565b005b34801561039357600080fd5b506103ae60048036038101906103a991906124b6565b610b81565b6040516103bb91906129a6565b60405180910390f35b3480156103d057600080fd5b506103d9610c33565b6040516103e69190612d05565b60405180910390f35b3480156103fb57600080fd5b506104166004803603810190610411919061224f565b610c39565b6040516104239190612d05565b60405180910390f35b34801561043857600080fd5b50610441610cf1565b005b34801561044f57600080fd5b50610458610d79565b60405161046591906129c1565b60405180910390f35b34801561047a57600080fd5b50610483610d9f565b60405161049091906129a6565b60405180910390f35b3480156104a557600080fd5b506104c060048036038101906104bb9190612471565b610dc9565b005b3480156104ce57600080fd5b506104d7610e5b565b6040516104e49190612a43565b60405180910390f35b610507600480360381019061050291906124b6565b610eed565b005b34801561051557600080fd5b50610530600480360381019061052b919061237e565b6110c4565b005b34801561053e57600080fd5b5061055960048036038101906105549190612303565b6110da565b005b34801561056757600080fd5b50610582600480360381019061057d91906124b6565b61113c565b60405161058f9190612a43565b60405180910390f35b3480156105a457600080fd5b506105ad6111b8565b6040516105ba9190612d05565b60405180910390f35b3480156105cf57600080fd5b506105ea60048036038101906105e59190612278565b6111be565b6040516105f79190612a28565b60405180910390f35b34801561060c57600080fd5b506106276004803603810190610622919061224f565b611252565b6040516106349190612d05565b60405180910390f35b34801561064957600080fd5b50610664600480360381019061065f919061224f565b61126a565b005b600b60009054906101000a900460ff1681565b60007f80ac58cd000000000000000000000000000000000000000000000000000000007bffffffffffffffffffffffffffffffffffffffffffffffffffffffff1916827bffffffffffffffffffffffffffffffffffffffffffffffffffffffff1916148061074457507f5b5e139f000000000000000000000000000000000000000000000000000000007bffffffffffffffffffffffffffffffffffffffffffffffffffffffff1916827bffffffffffffffffffffffffffffffffffffffffffffffffffffffff1916145b80610754575061075382611362565b5b9050919050565b60606000805461076a90612fb6565b80601f016020809104026020016040519081016040528092919081815260200182805461079690612fb6565b80156107e35780601f106107b8576101008083540402835291602001916107e3565b820191906000526020600020905b8154815290600101906020018083116107c657829003601f168201915b5050505050905090565b60006107f8826113cc565b610837576040517f08c379a000000000000000000000000000000000000000000000000000000000815260040161082e90612c45565b60405180910390fd5b6004600083815260200190815260200160002060009054906101000a900473ffffffffffffffffffffffffffffffffffffffff169050919050565b600061087d82610b81565b90508073ffffffffffffffffffffffffffffffffffffffff168373ffffffffffffffffffffffffffffffffffffffff1614156108ee576040517f08c379a00000000000000000000000000000000000000000000000000000000081526004016108e590612ca5565b60405180910390fd5b8073ffffffffffffffffffffffffffffffffffffffff1661090d611438565b73ffffffffffffffffffffffffffffffffffffffff16148061093c575061093b81610936611438565b6111be565b5b61097b576040517f08c379a000000000000000000000000000000000000000000000000000000000815260040161097290612bc5565b60405180910390fd5b6109858383611440565b505050565b60085481565b610998611438565b73ffffffffffffffffffffffffffffffffffffffff166109b6610d9f565b73ffffffffffffffffffffffffffffffffffffffff1614610a0c576040517f08c379a0000000000000000000000000000000000000000000000000000000008152600401610a0390612c65565b60405180910390fd5b80600b60006101000a81548160ff02191690831515021790555050565b610a3a610a34611438565b826114f9565b610a79576040517f08c379a0000000000000000000000000000000000000000000000000000000008152600401610a7090612cc5565b60405180910390fd5b610a848383836115d7565b505050565b600a5481565b6000600d60009054906101000a900473ffffffffffffffffffffffffffffffffffffffff1673ffffffffffffffffffffffffffffffffffffffff1647604051610ad790612991565b60006040518083038185875af1925050503d8060008114610b14576040519150601f19603f3d011682016040523d82523d6000602084013e610b19565b606091505b5050905080610b5d576040517f08c379a0000000000000000000000000000000000000000000000000000000008152600401610b5490612ce5565b60405180910390fd5b5050565b610b7c838383604051806020016040528060008152506110da565b505050565b6000806002600084815260200190815260200160002060009054906101000a900473ffffffffffffffffffffffffffffffffffffffff169050600073ffffffffffffffffffffffffffffffffffffffff168173ffffffffffffffffffffffffffffffffffffffff161415610c2a576040517f08c379a0000000000000000000000000000000000000000000000000000000008152600401610c2190612c05565b60405180910390fd5b80915050919050565b60075481565b60008073ffffffffffffffffffffffffffffffffffffffff168273ffffffffffffffffffffffffffffffffffffffff161415610caa576040517f08c379a0000000000000000000000000000000000000000000000000000000008152600401610ca190612be5565b60405180910390fd5b600360008373ffffffffffffffffffffffffffffffffffffffff1673ffffffffffffffffffffffffffffffffffffffff168152602001908152602001600020549050919050565b610cf9611438565b73ffffffffffffffffffffffffffffffffffffffff16610d17610d9f565b73ffffffffffffffffffffffffffffffffffffffff1614610d6d576040517f08c379a0000000000000000000000000000000000000000000000000000000008152600401610d6490612c65565b60405180910390fd5b610d77600061183e565b565b600d60009054906101000a900473ffffffffffffffffffffffffffffffffffffffff1681565b6000600660009054906101000a900473ffffffffffffffffffffffffffffffffffffffff16905090565b610dd1611438565b73ffffffffffffffffffffffffffffffffffffffff16610def610d9f565b73ffffffffffffffffffffffffffffffffffffffff1614610e45576040517f08c379a0000000000000000000000000000000000000000000000000000000008152600401610e3c90612c65565b60405180910390fd5b8181600c9190610e56929190612091565b505050565b606060018054610e6a90612fb6565b80601f0160208091040260200160405190810160405280929190818152602001828054610e9690612fb6565b8015610ee35780601f10610eb857610100808354040283529160200191610ee3565b820191906000526020600020905b815481529060010190602001808311610ec657829003601f168201915b5050505050905090565b600b60009054906101000a900460ff16610f3c576040517f08c379a0000000000000000000000000000000000000000000000000000000008152600401610f3390612c85565b60405180910390fd5b60075481610f4a9190612e60565b3414610f8b576040517f08c379a0000000000000000000000000000000000000000000000000000000008152600401610f8290612ae5565b60405180910390fd5b60095481600854610f9c9190612dd9565b1115610fdd576040517f08c379a0000000000000000000000000000000000000000000000000000000008152600401610fd490612b85565b60405180910390fd5b600a5481600e60003373ffffffffffffffffffffffffffffffffffffffff1673ffffffffffffffffffffffffffffffffffffffff1681526020019081526020016000205461102b9190612dd9565b111561106c576040517f08c379a000000000000000000000000000000000000000000000000000000000815260040161106390612ba5565b60405180910390fd5b60005b818110156110c057600060016008546110889190612dd9565b90506008600081548092919061109d90613019565b91905055506110ac3382611904565b5080806110b890613019565b91505061106f565b5050565b6110d66110cf611438565b8383611922565b5050565b6110eb6110e5611438565b836114f9565b61112a576040517f08c379a000000000000000000000000000000000000000000000000000000000815260040161112190612cc5565b60405180910390fd5b61113684848484611a8f565b50505050565b6060611147826113cc565b611186576040517f08c379a000000000000000000000000000000000000000000000000000000000815260040161117d90612b45565b60405180910390fd5b600c61119183611aeb565b6040516020016111a2929190612962565b6040516020818303038152906040529050919050565b60095481565b6000600560008473ffffffffffffffffffffffffffffffffffffffff1673ffffffffffffffffffffffffffffffffffffffff16815260200190815260200160002060008373ffffffffffffffffffffffffffffffffffffffff1673ffffffffffffffffffffffffffffffffffffffff16815260200190815260200160002060009054906101000a900460ff16905092915050565b600e6020528060005260406000206000915090505481565b611272611438565b73ffffffffffffffffffffffffffffffffffffffff16611290610d9f565b73ffffffffffffffffffffffffffffffffffffffff16146112e6576040517f08c379a00000000000000000000000000000000000000000000000000000000081526004016112dd90612c65565b60405180910390fd5b600073ffffffffffffffffffffffffffffffffffffffff168173ffffffffffffffffffffffffffffffffffffffff161415611356576040517f08c379a000000000000000000000000000000000000000000000000000000000815260040161134d90612a85565b60405180910390fd5b61135f8161183e565b50565b60007f01ffc9a7000000000000000000000000000000000000000000000000000000007bffffffffffffffffffffffffffffffffffffffffffffffffffffffff1916827bffffffffffffffffffffffffffffffffffffffffffffffffffffffff1916149050919050565b60008073ffffffffffffffffffffffffffffffffffffffff166002600084815260200190815260200160002060009054906101000a900473ffffffffffffffffffffffffffffffffffffffff1673ffffffffffffffffffffffffffffffffffffffff1614159050919050565b600033905090565b816004600083815260200190815260200160002060006101000a81548173ffffffffffffffffffffffffffffffffffffffff021916908373ffffffffffffffffffffffffffffffffffffffff160217905550808273ffffffffffffffffffffffffffffffffffffffff166114b383610b81565b73ffffffffffffffffffffffffffffffffffffffff167f8c5be1e5ebec7d5bd14f71427d1e84f3dd0314c0f7b2291e5b200ac8c7c3b92560405160405180910390a45050565b6000611504826113cc565b611543576040517f08c379a000000000000000000000000000000000000000000000000000000000815260040161153a90612b65565b60405180910390fd5b600061154e83610b81565b90508073ffffffffffffffffffffffffffffffffffffffff168473ffffffffffffffffffffffffffffffffffffffff1614806115bd57508373ffffffffffffffffffffffffffffffffffffffff166115a5846107ed565b73ffffffffffffffffffffffffffffffffffffffff16145b806115ce57506115cd81856111be565b5b91505092915050565b8273ffffffffffffffffffffffffffffffffffffffff166115f782610b81565b73ffffffffffffffffffffffffffffffffffffffff161461164d576040517f08c379a000000000000000000000000000000000000000000000000000000000815260040161164490612aa5565b60405180910390fd5b600073ffffffffffffffffffffffffffffffffffffffff168273ffffffffffffffffffffffffffffffffffffffff1614156116bd576040517f08c379a00000000000000000000000000000000000000000000000000000000081526004016116b490612b05565b60405180910390fd5b6116c8838383611c98565b6116d3600082611440565b6001600360008573ffffffffffffffffffffffffffffffffffffffff1673ffffffffffffffffffffffffffffffffffffffff16815260200190815260200160002060008282546117239190612eba565b925050819055506001600360008473ffffffffffffffffffffffffffffffffffffffff1673ffffffffffffffffffffffffffffffffffffffff168152602001908152602001600020600082825461177a9190612dd9565b92505081905550816002600083815260200190815260200160002060006101000a81548173ffffffffffffffffffffffffffffffffffffffff021916908373ffffffffffffffffffffffffffffffffffffffff160217905550808273ffffffffffffffffffffffffffffffffffffffff168473ffffffffffffffffffffffffffffffffffffffff167fddf252ad1be2c89b69c2b068fc378daa952ba7f163c4a11628f55a4df523b3ef60405160405180910390a4611839838383611c9d565b505050565b6000600660009054906101000a900473ffffffffffffffffffffffffffffffffffffffff16905081600660006101000a81548173ffffffffffffffffffffffffffffffffffffffff021916908373ffffffffffffffffffffffffffffffffffffffff1602179055508173ffffffffffffffffffffffffffffffffffffffff168173ffffffffffffffffffffffffffffffffffffffff167f8be0079c531659141344cd1fd0a4f28419497f9722a3daafe3b4186f6b6457e060405160405180910390a35050565b61191e828260405180602001604052806000815250611ca2565b5050565b8173ffffffffffffffffffffffffffffffffffffffff168373ffffffffffffffffffffffffffffffffffffffff161415611991576040517f08c379a000000000000000000000000000000000000000000000000000000000815260040161198890612b25565b60405180910390fd5b80600560008573ffffffffffffffffffffffffffffffffffffffff1673ffffffffffffffffffffffffffffffffffffffff16815260200190815260200160002060008473ffffffffffffffffffffffffffffffffffffffff1673ffffffffffffffffffffffffffffffffffffffff16815260200190815260200160002060006101000a81548160ff0219169083151502179055508173ffffffffffffffffffffffffffffffffffffffff168373ffffffffffffffffffffffffffffffffffffffff167f17307eab39ab6107e8899845ad3d59bd9653f200f220920489ca2b5937696c3183604051611a829190612a28565b60405180910390a3505050565b611a9a8484846115d7565b611aa684848484611cfd565b611ae5576040517f08c379a0000000000000000000000000000000000000000000000000000000008152600401611adc90612a65565b60405180910390fd5b50505050565b60606000821415611b33576040518060400160405280600181526020017f30000000000000000000000000000000000000000000000000000000000000008152509050611c93565b600082905060005b60008214611b65578080611b4e90613019565b915050600a82611b5e9190612e2f565b9150611b3b565b60008167ffffffffffffffff811115611ba7577f4e487b7100000000000000000000000000000000000000000000000000000000600052604160045260246000fd5b6040519080825280601f01601f191660200182016040528015611bd95781602001600182028036833780820191505090505b5090505b60008514611c8c57600182611bf29190612eba565b9150600a85611c019190613062565b6030611c0d9190612dd9565b60f81b818381518110611c49577f4e487b7100000000000000000000000000000000000000000000000000000000600052603260045260246000fd5b60200101907effffffffffffffffffffffffffffffffffffffffffffffffffffffffffffff1916908160001a905350600a85611c859190612e2f565b9450611bdd565b8093505050505b919050565b505050565b505050565b611cac8383611e94565b611cb96000848484611cfd565b611cf8576040517f08c379a0000000000000000000000000000000000000000000000000000000008152600401611cef90612a65565b60405180910390fd5b505050565b6000611d1e8473ffffffffffffffffffffffffffffffffffffffff1661206e565b15611e87578373ffffffffffffffffffffffffffffffffffffffff1663150b7a02611d47611438565b8786866040518563ffffffff1660e01b8152600401611d6994939291906129dc565b602060405180830381600087803b158015611d8357600080fd5b505af1925050508015611db457506040513d601f19601f82011682018060405250810190611db19190612448565b60015b611e37573d8060008114611de4576040519150601f19603f3d011682016040523d82523d6000602084013e611de9565b606091505b50600081511415611e2f576040517f08c379a0000000000000000000000000000000000000000000000000000000008152600401611e2690612a65565b60405180910390fd5b805181602001fd5b63150b7a0260e01b7bffffffffffffffffffffffffffffffffffffffffffffffffffffffff1916817bffffffffffffffffffffffffffffffffffffffffffffffffffffffff191614915050611e8c565b600190505b949350505050565b600073ffffffffffffffffffffffffffffffffffffffff168273ffffffffffffffffffffffffffffffffffffffff161415611f04576040517f08c379a0000000000000000000000000000000000000000000000000000000008152600401611efb90612c25565b60405180910390fd5b611f0d816113cc565b15611f4d576040517f08c379a0000000000000000000000000000000000000000000000000000000008152600401611f4490612ac5565b60405180910390fd5b611f5960008383611c98565b6001600360008473ffffffffffffffffffffffffffffffffffffffff1673ffffffffffffffffffffffffffffffffffffffff1681526020019081526020016000206000828254611fa99190612dd9565b92505081905550816002600083815260200190815260200160002060006101000a81548173ffffffffffffffffffffffffffffffffffffffff021916908373ffffffffffffffffffffffffffffffffffffffff160217905550808273ffffffffffffffffffffffffffffffffffffffff16600073ffffffffffffffffffffffffffffffffffffffff167fddf252ad1be2c89b69c2b068fc378daa952ba7f163c4a11628f55a4df523b3ef60405160405180910390a461206a60008383611c9d565b5050565b6000808273ffffffffffffffffffffffffffffffffffffffff163b119050919050565b82805461209d90612fb6565b90600052602060002090601f0160209004810192826120bf5760008555612106565b82601f106120d857803560ff1916838001178555612106565b82800160010185558215612106579182015b828111156121055782358255916020019190600101906120ea565b5b5090506121139190612117565b5090565b5b80821115612130576000816000905550600101612118565b5090565b600061214761214284612d45565b612d20565b90508281526020810184848401111561215f57600080fd5b61216a848285612f74565b509392505050565b6000813590506121818161368b565b92915050565b600081359050612196816136a2565b92915050565b6000813590506121ab816136b9565b92915050565b6000815190506121c0816136b9565b92915050565b600082601f8301126121d757600080fd5b81356121e7848260208601612134565b91505092915050565b60008083601f84011261220257600080fd5b8235905067ffffffffffffffff81111561221b57600080fd5b60208301915083600182028301111561223357600080fd5b9250929050565b600081359050612249816136d0565b92915050565b60006020828403121561226157600080fd5b600061226f84828501612172565b91505092915050565b6000806040838503121561228b57600080fd5b600061229985828601612172565b92505060206122aa85828601612172565b9150509250929050565b6000806000606084860312156122c957600080fd5b60006122d786828701612172565b93505060206122e886828701612172565b92505060406122f98682870161223a565b9150509250925092565b6000806000806080858703121561231957600080fd5b600061232787828801612172565b945050602061233887828801612172565b93505060406123498782880161223a565b925050606085013567ffffffffffffffff81111561236657600080fd5b612372878288016121c6565b91505092959194509250565b6000806040838503121561239157600080fd5b600061239f85828601612172565b92505060206123b085828601612187565b9150509250929050565b600080604083850312156123cd57600080fd5b60006123db85828601612172565b92505060206123ec8582860161223a565b9150509250929050565b60006020828403121561240857600080fd5b600061241684828501612187565b91505092915050565b60006020828403121561243157600080fd5b600061243f8482850161219c565b91505092915050565b60006020828403121561245a57600080fd5b6000612468848285016121b1565b91505092915050565b6000806020838503121561248457600080fd5b600083013567ffffffffffffffff81111561249e57600080fd5b6124aa858286016121f0565b92509250509250929050565b6000602082840312156124c857600080fd5b60006124d68482850161223a565b91505092915050565b6124e881612f00565b82525050565b6124f781612eee565b82525050565b61250681612f12565b82525050565b600061251782612d8b565b6125218185612da1565b9350612531818560208601612f83565b61253a8161314f565b840191505092915050565b600061255082612d96565b61255a8185612dbd565b935061256a818560208601612f83565b6125738161314f565b840191505092915050565b600061258982612d96565b6125938185612dce565b93506125a3818560208601612f83565b80840191505092915050565b600081546125bc81612fb6565b6125c68186612dce565b945060018216600081146125e157600181146125f257612625565b60ff19831686528186019350612625565b6125fb85612d76565b60005b8381101561261d578154818901526001820191506020810190506125fe565b838801955050505b50505092915050565b600061263b603283612dbd565b915061264682613160565b604082019050919050565b600061265e602683612dbd565b9150612669826131af565b604082019050919050565b6000612681602583612dbd565b915061268c826131fe565b604082019050919050565b60006126a4601c83612dbd565b91506126af8261324d565b602082019050919050565b60006126c7601083612dbd565b91506126d282613276565b602082019050919050565b60006126ea602483612dbd565b91506126f58261329f565b604082019050919050565b600061270d601983612dbd565b9150612718826132ee565b602082019050919050565b6000612730601483612dbd565b915061273b82613317565b602082019050919050565b6000612753602c83612dbd565b915061275e82613340565b604082019050919050565b6000612776600883612dbd565b91506127818261338f565b602082019050919050565b6000612799601683612dbd565b91506127a4826133b8565b602082019050919050565b60006127bc603883612dbd565b91506127c7826133e1565b604082019050919050565b60006127df602a83612dbd565b91506127ea82613430565b604082019050919050565b6000612802602983612dbd565b915061280d8261347f565b604082019050919050565b6000612825602083612dbd565b9150612830826134ce565b602082019050919050565b6000612848602c83612dbd565b9150612853826134f7565b604082019050919050565b600061286b600583612dce565b915061287682613546565b600582019050919050565b600061288e602083612dbd565b91506128998261356f565b602082019050919050565b60006128b1601683612dbd565b91506128bc82613598565b602082019050919050565b60006128d4602183612dbd565b91506128df826135c1565b604082019050919050565b60006128f7600083612db2565b915061290282613610565b600082019050919050565b600061291a603183612dbd565b915061292582613613565b604082019050919050565b600061293d600f83612dbd565b915061294882613662565b602082019050919050565b61295c81612f6a565b82525050565b600061296e82856125af565b915061297a828461257e565b91506129858261285e565b91508190509392505050565b600061299c826128ea565b9150819050919050565b60006020820190506129bb60008301846124ee565b92915050565b60006020820190506129d660008301846124df565b92915050565b60006080820190506129f160008301876124ee565b6129fe60208301866124ee565b612a0b6040830185612953565b8181036060830152612a1d818461250c565b905095945050505050565b6000602082019050612a3d60008301846124fd565b92915050565b60006020820190508181036000830152612a5d8184612545565b905092915050565b60006020820190508181036000830152612a7e8161262e565b9050919050565b60006020820190508181036000830152612a9e81612651565b9050919050565b60006020820190508181036000830152612abe81612674565b9050919050565b60006020820190508181036000830152612ade81612697565b9050919050565b60006020820190508181036000830152612afe816126ba565b9050919050565b60006020820190508181036000830152612b1e816126dd565b9050919050565b60006020820190508181036000830152612b3e81612700565b9050919050565b60006020820190508181036000830152612b5e81612723565b9050919050565b60006020820190508181036000830152612b7e81612746565b9050919050565b60006020820190508181036000830152612b9e81612769565b9050919050565b60006020820190508181036000830152612bbe8161278c565b9050919050565b60006020820190508181036000830152612bde816127af565b9050919050565b60006020820190508181036000830152612bfe816127d2565b9050919050565b60006020820190508181036000830152612c1e816127f5565b9050919050565b60006020820190508181036000830152612c3e81612818565b9050919050565b60006020820190508181036000830152612c5e8161283b565b9050919050565b60006020820190508181036000830152612c7e81612881565b9050919050565b60006020820190508181036000830152612c9e816128a4565b9050919050565b60006020820190508181036000830152612cbe816128c7565b9050919050565b60006020820190508181036000830152612cde8161290d565b9050919050565b60006020820190508181036000830152612cfe81612930565b9050919050565b6000602082019050612d1a6000830184612953565b92915050565b6000612d2a612d3b565b9050612d368282612fe8565b919050565b6000604051905090565b600067ffffffffffffffff821115612d6057612d5f613120565b5b612d698261314f565b9050602081019050919050565b60008190508160005260206000209050919050565b600081519050919050565b600081519050919050565b600082825260208201905092915050565b600081905092915050565b600082825260208201905092915050565b600081905092915050565b6000612de482612f6a565b9150612def83612f6a565b9250827fffffffffffffffffffffffffffffffffffffffffffffffffffffffffffffffff03821115612e2457612e23613093565b5b828201905092915050565b6000612e3a82612f6a565b9150612e4583612f6a565b925082612e5557612e546130c2565b5b828204905092915050565b6000612e6b82612f6a565b9150612e7683612f6a565b9250817fffffffffffffffffffffffffffffffffffffffffffffffffffffffffffffffff0483118215151615612eaf57612eae613093565b5b828202905092915050565b6000612ec582612f6a565b9150612ed083612f6a565b925082821015612ee357612ee2613093565b5b828203905092915050565b6000612ef982612f4a565b9050919050565b6000612f0b82612f4a565b9050919050565b60008115159050919050565b60007fffffffff0000000000000000000000000000000000000000000000000000000082169050919050565b600073ffffffffffffffffffffffffffffffffffffffff82169050919050565b6000819050919050565b82818337600083830152505050565b60005b83811015612fa1578082015181840152602081019050612f86565b83811115612fb0576000848401525b50505050565b60006002820490506001821680612fce57607f821691505b60208210811415612fe257612fe16130f1565b5b50919050565b612ff18261314f565b810181811067ffffffffffffffff821117156130105761300f613120565b5b80604052505050565b600061302482612f6a565b91507fffffffffffffffffffffffffffffffffffffffffffffffffffffffffffffffff82141561305757613056613093565b5b600182019050919050565b600061306d82612f6a565b915061307883612f6a565b925082613088576130876130c2565b5b828206905092915050565b7f4e487b7100000000000000000000000000000000000000000000000000000000600052601160045260246000fd5b7f4e487b7100000000000000000000000000000000000000000000000000000000600052601260045260246000fd5b7f4e487b7100000000000000000000000000000000000000000000000000000000600052602260045260246000fd5b7f4e487b7100000000000000000000000000000000000000000000000000000000600052604160045260246000fd5b6000601f19601f8301169050919050565b7f4552433732313a207472616e7366657220746f206e6f6e20455243373231526560008201527f63656976657220696d706c656d656e7465720000000000000000000000000000602082015250565b7f4f776e61626c653a206e6577206f776e657220697320746865207a65726f206160008201527f6464726573730000000000000000000000000000000000000000000000000000602082015250565b7f4552433732313a207472616e736665722066726f6d20696e636f72726563742060008201527f6f776e6572000000000000000000000000000000000000000000000000000000602082015250565b7f4552433732313a20746f6b656e20616c7265616479206d696e74656400000000600082015250565b7f57726f6e67206d696e742056616c756500000000000000000000000000000000600082015250565b7f4552433732313a207472616e7366657220746f20746865207a65726f2061646460008201527f7265737300000000000000000000000000000000000000000000000000000000602082015250565b7f4552433732313a20617070726f766520746f2063616c6c657200000000000000600082015250565b7f546f6b656e20646f6573206e6f74206578697374000000000000000000000000600082015250565b7f4552433732313a206f70657261746f7220717565727920666f72206e6f6e657860008201527f697374656e7420746f6b656e0000000000000000000000000000000000000000602082015250565b7f736f6c64206f7574000000000000000000000000000000000000000000000000600082015250565b7f6578636565647320746865206d617857616c6c65747300000000000000000000600082015250565b7f4552433732313a20617070726f76652063616c6c6572206973206e6f74206f7760008201527f6e6572206e6f7220617070726f76656420666f7220616c6c0000000000000000602082015250565b7f4552433732313a2062616c616e636520717565727920666f7220746865207a6560008201527f726f206164647265737300000000000000000000000000000000000000000000602082015250565b7f4552433732313a206f776e657220717565727920666f72206e6f6e657869737460008201527f656e7420746f6b656e0000000000000000000000000000000000000000000000602082015250565b7f4552433732313a206d696e7420746f20746865207a65726f2061646472657373600082015250565b7f4552433732313a20617070726f76656420717565727920666f72206e6f6e657860008201527f697374656e7420746f6b656e0000000000000000000000000000000000000000602082015250565b7f2e6a736f6e000000000000000000000000000000000000000000000000000000600082015250565b7f4f776e61626c653a2063616c6c6572206973206e6f7420746865206f776e6572600082015250565b7f6d696e74696e67206973206e6f7420656e61626c656400000000000000000000600082015250565b7f4552433732313a20617070726f76616c20746f2063757272656e74206f776e6560008201527f7200000000000000000000000000000000000000000000000000000000000000602082015250565b50565b7f4552433732313a207472616e736665722063616c6c6572206973206e6f74206f60008201527f776e6572206e6f7220617070726f766564000000000000000000000000000000602082015250565b7f7769746864726177206661696c65640000000000000000000000000000000000600082015250565b61369481612eee565b811461369f57600080fd5b50565b6136ab81612f12565b81146136b657600080fd5b50565b6136c281612f1e565b81146136cd57600080fd5b50565b6136d981612f6a565b81146136e457600080fd5b5056fea2646970667358221220f5bd2923c86c108e8725e34310cd3bd3f0cb3a6e171034f4f77837944644c4d764736f6c63430008040033",
    "linkReferences": {},
    "deployedLinkReferences": {}
}